S019000073746D3332663478785F647269766572732E737265636A
S31508000000000002204509000895090008950900081E
S3150800001095090008950900089509000800000000E0
S31508000020000000000000000000000000950900081C
S3150800003095090008000000009509000895090008C0
S31508000040950900089509000895090008950900080A
S3150800005095090008950900089509000895090008FA
S3150800006095090008950900089509000895090008EA
S3150800007095090008950900089509000895090008DA
S3150800008095090008950900089509000895090008CA
S3150800009095090008950900089509000895090008BA
S315080000A095090008950900089509000895090008AA
S315080000B0950900089509000895090008950900089A
S315080000C0950900089509000895090008950900088A
S315080000D0950900089509000895090008950900087A
S315080000E029090008950900089509000895090008D6
S315080000F0950900089509000895090008950900085A
S315080001009509000895090008950900089509000849
S315080001109509000895090008950900089509000839
S315080001209509000895090008950900089509000829
S315080001309509000800000000000000009509000865
S315080001409509000895090008950900089509000809
S3150800015095090008950900089509000895090008F9
S3150800016095090008950900089509000895090008E9
S31508000170950900089509000895090008000000007F
S3150800018000000000950900080000000000000000BB
S315080001909509000800000000000000009509000805
S315080001A0000000000000000000000000950900089B
S315080001B09509000895090008950900089509000899
S309080001C09509000887
S315080001C410B5054C237833B9044B13B10448AFF37F
S315080001D400800123237010BD0000002000000000E9
S315080001E4F009000808B5034B1BB103490348AFF3EC
S315080001F4008008BD0000000004000020F009000883
S3150800020480B483B000AF78600B46FB70FB78012B93
S3150800021457D17B68594A934206D1594B1B6B584AA6
S3150800022443F001031363A3E07B68564A934206D15D
S31508000234534B1B6B524A43F00203136398E07B68E3
S31508000244514A934206D14E4B1B6B4D4A43F0040365
S3150800025413638DE07B684D4A934206D1484B1B6B6A
S31508000264474A43F00803136382E07B68484A93428B
S3150800027406D1434B1B6B424A43F01003136377E0E2
S315080002847B68444A934206D13D4B1B6B3C4A43F078
S31508000294200313636CE07B683F4A934206D1384BCC
S315080002A41B6B374A43F04003136361E07B683B4AA0
S315080002B493425DD1324B1B6B314A43F0800313637F
S315080002C456E07B682D4A934206D12D4B1B6B2C4A6C
S315080002D423F0010313634BE07B682A4A934206D151
S315080002E4274B1B6B264A23F00203136340E07B6803
S315080002F4254A934206D1224B1B6B214A23F0040359
S31508000304136335E07B68214A934206D11C4B1B6B69
S315080003141B4A23F0080313632AE07B681C4A9342AA
S3150800032406D1174B1B6B164A23F0100313631FE001
S315080003347B68184A934206D1114B1B6B104A23F06B
S315080003442003136314E07B68134A934206D10C4BCB
S315080003541B6B0B4A23F04003136309E07B680F4ABF
S31508000364934205D1064B1B6B054A23F0800313639E
S3150800037400BF0C37BD4680BC704700BF0000024072
S31508000384003802400004024000080240000C024003
S31508000394001002400014024000180240001C0240EB
S315080003A480B586B000AF78607B681B680121184663
S315080003B4FFF726FF00237B617B685B79032B1FD835
S315080003C47B685B791A467B681B795B0002FA03F340
S315080003D47B617B681B681A687B681B79194603234B
S315080003E48B40DB4319467B681B680A401A607B68A6
S315080003F41B6819687B681B687A690A431A60C2E035
S315080004047B685B79042B17D1474BDB687A681279CA
S31508000414114601228A401146434A0B43D360424B94
S315080004249B687A681279114601228A40D24311469A
S315080004343D4A0B40936035E07B685B79052B17D101
S31508000444394B9B687A681279114601228A4011460B
S31508000454354A0B439360344BDB687A681279114644
S3150800046401228A40D24311462F4A0B40D36019E031
S315080004747B685B79062B15D12B4BDB687A68127976
S31508000484114601228A401146274A0B43D360264B5C
S315080004949B687A681279114601228A401146224AD3
S315080004A40B4393607B681B799B08FB747B681B79F9
S315080004B403F00303BB747B681B681C4A934245D04C
S315080004C47B681B681A4A93422BD07B681B68194AB7
S315080004D4934224D07B681B68174A93421DD07B68D5
S315080004E41B68164A934216D07B681B68144A9342C3
S315080004F40FD07B681B68134A934208D07B681B6835
S31508000504114A934201D1072321E000231FE0062361
S315080005141DE005231BE0042319E0032317E0022347
S3150800052415E0012313E000BF003C0140000002402F
S315080005340004024000080240000C02400010024079
S315080005440014024000180240001C024000237B7479
S315080005545C4B5B6C5B4A43F4804353647A7CBB7C98
S315080005649B0002FA03F1584AFB7C023342F8231033
S31508000574564B1B687A681279114601228A4011463D
S31508000584524A0B43136000237B617B689B791A46A6
S315080005947B681B795B0002FA03F37B617B681B6843
S315080005A49A687B681B79194603238B40DB431946F3
S315080005B47B681B680A409A607B681B6899687B6835
S315080005C41B687A690A439A6000237B617B68DB7936
S315080005D41A467B681B795B0002FA03F37B617B6826
S315080005E41B68DA687B681B79194603238B40DB434F
S315080005F419467B681B680A40DA607B681B68D968F9
S315080006047B681B687A690A43DA6000237B617B6826
S315080006141B7A1A467B681B7902FA03F37B617B68AB
S315080006241B685A687B681B79194601238B40DB4390
S3150800063419467B681B680A405A607B681B685968B8
S315080006447B681B687A690A435A6000237B617B6866
S315080006545B79022B31D17B681B79DB083B747B6899
S315080006641B7903F00703FB737B681B683A7C083223
S3150800067453F82210FB7B9B000F2202FA03F3DB4399
S3150800068418467B681B683A7C0140083243F82210F6
S315080006947B681B683A7C083253F822107B685B7ABD
S315080006A41A46FB7B9B0002FA03F318467B681B6811
S315080006B43A7C0143083243F8221000BF1837BD4676
S315080006C480BD00BF0038024000380140003C0140AC
S315080006D480B483B000AF78600B46FB707B685B69B7
S315080006E4FA78012101FA02F25A407B685A6100BF7E
S315080006F40C37BD4680BC704780B483B000AF034650
S315080007040A46FB711346BB71BB79012B33D1FB79BE
S315080007141F2B0AD8344B1B68FA79012101FA02F215
S315080007241146314A0B43136059E0FB791F2B0FD945
S31508000734FB793F2B0CD82D4B1B68FA7902F01F0264
S31508000744012101FA02F21146284A0B43136046E0D6
S31508000754FB793F2B43D9FB795F2B40D8244B1B6885
S31508000764FA7902F03F02012101FA02F21146204AFF
S315080007740B43136033E0FB791F2B0AD81D4B1B6808
S31508000784FA79012101FA02F211461A4A0B43136057
S3150800079425E0FB791F2B0FD9FB793F2B0CD8164B79
S315080007A41B68FA7902F01F02012101FA02F21146C6
S315080007B4114A0B43136012E0FB793F2B0FD9FB79DF
S315080007C45F2B0CD80D4B1B68FA7902F03F02012106
S315080007D401FA02F21146094A0B431360FFE700BF08
S315080007E40C37BD4680BC704700E100E004E100E038
S315080007F408E100E080E100E084E100E088E100E04F
S3150800080480B485B000AF03463960FB71FB799B0859
S31508000814FB73FB7903F00303BB73BB7BDB00DBB21F
S3150800082404337B737A7BFB7B9B0003F1604303F5FC
S315080008346443396801FA02F21A6000BF1437BD46E8
S3150800084480BC704780B483B000AF0346FB710C4B81
S315080008545B69FA79012101FA02F21340002B09D0E7
S31508000864074B5B69FA79012101FA02F21146044A37
S315080008740B43536100BF0C37BD4680BC704700BFAD
S31508000884003C014080B483B000AF00237B6002E0E3
S315080008947B6801337B607B6841F287329342F7D9E0
S315080008A400BF00BF0C37BD4680BC704780B586B014
S315080008B400AF07F10C030C220021184600F08EF84D
S315080008C43B460C220021184600F088F8144BFB60BE
S315080008D40A233B7401237B740223BB7400233B75F0
S315080008E40023FB7407F10C031846FFF759FD0C4B5C
S315080008F43B600D233B7104237B710223BB710023E8
S31508000904FB713B461846FFF74BFD0F212820FFF7DE
S3150800091477FF01212820FFF7EFFEFFF7B3FFFCE777
S315080009240008024080B500AF0D20FFF78BFF0A21AF
S315080009340248FFF7CDFE00BF80BD00BF0008024095
S315080009440D488546AFF300800C480D490D4A00232F
S3150800095402E0D458C4500433C4188C42F9D30A4A62
S315080009640A4C002301E013600432A242FBD300F0D0
S3150800097411F8FFF79BFFFEE70000022000000020A5
S3150800098400000020100A0008000000201C000020B7
S31508000994FEE7000070B50D4D0D4C641BA41000262F
S315080009A4A64209D10B4D0C4C00F020F8641BA41088
S315080009B40026A64205D170BD55F8043B9847013672
S315080009C4EEE755F8043B98470136F2E7080A0008AB
S315080009D4080A0008080A00080C0A00080244034624
S315080009E4934200D1704703F8011BF9E7F8B500BF35
S315080009F4F8BC08BC9E467047F8B500BFF8BC08BCEE
S30908000A049E46704745
S30908000A08E9010008EA
S30908000A0CC50100080A
S70508000945A4
